{
  "_format": "hh-sol-artifact-1",
  "contractName": "GameContract",
  "sourceName": "contracts/GameContract.sol",
  "abi": [
    {
      "inputs": [],
      "stateMutability": "nonpayable",
      "type": "constructor"
    },
    {
      "anonymous": false,
      "inputs": [
        {
          "indexed": false,
          "internalType": "uint256",
          "name": "gameId",
          "type": "uint256"
        },
        {
          "indexed": false,
          "internalType": "address",
          "name": "player1",
          "type": "address"
        },
        {
          "indexed": false,
          "internalType": "uint256",
          "name": "stakeAmount",
          "type": "uint256"
        }
      ],
      "name": "GameCreated",
      "type": "event"
    },
    {
      "anonymous": false,
      "inputs": [
        {
          "indexed": false,
          "internalType": "uint256",
          "name": "gameId",
          "type": "uint256"
        },
        {
          "indexed": false,
          "internalType": "address",
          "name": "player2",
          "type": "address"
        }
      ],
      "name": "GameJoined",
      "type": "event"
    },
    {
      "anonymous": false,
      "inputs": [
        {
          "indexed": false,
          "internalType": "uint256",
          "name": "gameId",
          "type": "uint256"
        }
      ],
      "name": "GameReset",
      "type": "event"
    },
    {
      "anonymous": false,
      "inputs": [
        {
          "indexed": false,
          "internalType": "uint256",
          "name": "gameId",
          "type": "uint256"
        },
        {
          "indexed": false,
          "internalType": "address",
          "name": "winner",
          "type": "address"
        },
        {
          "indexed": false,
          "internalType": "uint256",
          "name": "reward",
          "type": "uint256"
        }
      ],
      "name": "WinnerDeclared",
      "type": "event"
    },
    {
      "inputs": [],
      "name": "createGame",
      "outputs": [],
      "stateMutability": "payable",
      "type": "function"
    },
    {
      "inputs": [
        {
          "internalType": "uint256",
          "name": "gameId",
          "type": "uint256"
        }
      ],
      "name": "declareWinner",
      "outputs": [],
      "stateMutability": "nonpayable",
      "type": "function"
    },
    {
      "inputs": [],
      "name": "gameCounter",
      "outputs": [
        {
          "internalType": "uint256",
          "name": "",
          "type": "uint256"
        }
      ],
      "stateMutability": "view",
      "type": "function"
    },
    {
      "inputs": [
        {
          "internalType": "uint256",
          "name": "",
          "type": "uint256"
        }
      ],
      "name": "games",
      "outputs": [
        {
          "internalType": "address payable",
          "name": "player1",
          "type": "address"
        },
        {
          "internalType": "address payable",
          "name": "player2",
          "type": "address"
        },
        {
          "internalType": "uint256",
          "name": "stakeAmount",
          "type": "uint256"
        },
        {
          "internalType": "bool",
          "name": "isCompleted",
          "type": "bool"
        },
        {
          "internalType": "address",
          "name": "winner",
          "type": "address"
        }
      ],
      "stateMutability": "view",
      "type": "function"
    },
    {
      "inputs": [
        {
          "internalType": "uint256",
          "name": "gameId",
          "type": "uint256"
        }
      ],
      "name": "joinGame",
      "outputs": [],
      "stateMutability": "payable",
      "type": "function"
    },
    {
      "inputs": [],
      "name": "owner",
      "outputs": [
        {
          "internalType": "address",
          "name": "",
          "type": "address"
        }
      ],
      "stateMutability": "view",
      "type": "function"
    },
    {
      "inputs": [
        {
          "internalType": "uint256",
          "name": "gameId",
          "type": "uint256"
        }
      ],
      "name": "resetGame",
      "outputs": [],
      "stateMutability": "nonpayable",
      "type": "function"
    }
  ],
  "bytecode": "0x608060405234801561001057600080fd5b50336000806101000a81548173ffffffffffffffffffffffffffffffffffffffff021916908373ffffffffffffffffffffffffffffffffffffffff160217905550600060018190555061159e806100686000396000f3fe60806040526004361061006f5760003560e01c80634cf052d51161004e5780634cf052d5146101095780637255d729146101325780638da5cb5b1461013c578063efaa55a0146101675761006f565b8062c2943c14610074578063117a5b901461009d5780632e0be39a146100de575b600080fd5b34801561008057600080fd5b5061009b60048036038101906100969190610d5a565b610183565b005b3480156100a957600080fd5b506100c460048036038101906100bf9190610d5a565b61056e565b6040516100d5959493929190610e13565b60405180910390f35b3480156100ea57600080fd5b506100f3610611565b6040516101009190610e66565b60405180910390f35b34801561011557600080fd5b50610130600480360381019061012b9190610d5a565b610617565b005b61013a610865565b005b34801561014857600080fd5b50610151610a84565b60405161015e9190610e81565b60405180910390f35b610181600480360381019061017c9190610d5a565b610aa8565b005b6000600260008381526020019081526020016000209050600073ffffffffffffffffffffffffffffffffffffffff168160000160009054906101000a900473ffffffffffffffffffffffffffffffffffffffff1673ffffffffffffffffffffffffffffffffffffffff161415801561024c5750600073ffffffffffffffffffffffffffffffffffffffff168160010160009054906101000a900473ffffffffffffffffffffffffffffffffffffffff1673ffffffffffffffffffffffffffffffffffffffff1614155b61028b576040517f08c379a000000000000000000000000000000000000000000000000000000000815260040161028290610ef9565b60405180910390fd5b8060030160009054906101000a900460ff16156102dd576040517f08c379a00000000000000000000000000000000000000000000000000000000081526004016102d490610f65565b60405180910390fd5b8060000160009054906101000a900473ffffffffffffffffffffffffffffffffffffffff1673ffffffffffffffffffffffffffffffffffffffff163373ffffffffffffffffffffffffffffffffffffffff16148061038a57508060010160009054906101000a900473ffffffffffffffffffffffffffffffffffffffff1673ffffffffffffffffffffffffffffffffffffffff163373ffffffffffffffffffffffffffffffffffffffff16145b6103c9576040517f08c379a00000000000000000000000000000000000000000000000000000000081526004016103c090610ff7565b60405180910390fd5b6000600282600201546103dc9190611046565b905080471015610421576040517f08c379a0000000000000000000000000000000000000000000000000000000008152600401610418906110d4565b60405180910390fd5b338260030160016101000a81548173ffffffffffffffffffffffffffffffffffffffff021916908373ffffffffffffffffffffffffffffffffffffffff16021790555060018260030160006101000a81548160ff02191690831515021790555060003373ffffffffffffffffffffffffffffffffffffffff16826040516104a790611125565b60006040518083038185875af1925050503d80600081146104e4576040519150601f19603f3d011682016040523d82523d6000602084013e6104e9565b606091505b505090508061052d576040517f08c379a000000000000000000000000000000000000000000000000000000000815260040161052490611186565b60405180910390fd5b7f7ed5face07afb2b0e99df53523951350d2a3d4f5d105a0dd2110703efe399537843384604051610560939291906111a6565b60405180910390a150505050565b60026020528060005260406000206000915090508060000160009054906101000a900473ffffffffffffffffffffffffffffffffffffffff16908060010160009054906101000a900473ffffffffffffffffffffffffffffffffffffffff16908060020154908060030160009054906101000a900460ff16908060030160019054906101000a900473ffffffffffffffffffffffffffffffffffffffff16905085565b60015481565b60006002600083815260200190815260200160002090508060030160009054906101000a900460ff1661067f576040517f08c379a00000000000000000000000000000000000000000000000000000000081526004016106769061124f565b60405180910390fd5b8060000160009054906101000a900473ffffffffffffffffffffffffffffffffffffffff1673ffffffffffffffffffffffffffffffffffffffff163373ffffffffffffffffffffffffffffffffffffffff16148061072c57508060010160009054906101000a900473ffffffffffffffffffffffffffffffffffffffff1673ffffffffffffffffffffffffffffffffffffffff163373ffffffffffffffffffffffffffffffffffffffff16145b61076b576040517f08c379a0000000000000000000000000000000000000000000000000000000008152600401610762906112bb565b60405180910390fd5b6001600081548092919061077e906112db565b919050555060026000838152602001908152602001600020600080820160006101000a81549073ffffffffffffffffffffffffffffffffffffffff02191690556001820160006101000a81549073ffffffffffffffffffffffffffffffffffffffff021916905560028201600090556003820160006101000a81549060ff02191690556003820160016101000a81549073ffffffffffffffffffffffffffffffffffffffff021916905550507fde24ae18b2bda089720ca38332df93ab6195d7b5b3b0981ccae6b33e0a6c3f9b826040516108599190610e66565b60405180910390a15050565b600034116108a8576040517f08c379a000000000000000000000000000000000000000000000000000000000815260040161089f9061136f565b60405180910390fd5b600160008154809291906108bb906112db565b91905055506040518060a001604052803373ffffffffffffffffffffffffffffffffffffffff168152602001600073ffffffffffffffffffffffffffffffffffffffff168152602001348152602001600015158152602001600073ffffffffffffffffffffffffffffffffffffffff1681525060026000600154815260200190815260200160002060008201518160000160006101000a81548173ffffffffffffffffffffffffffffffffffffffff021916908373ffffffffffffffffffffffffffffffffffffffff16021790555060208201518160010160006101000a81548173ffffffffffffffffffffffffffffffffffffffff021916908373ffffffffffffffffffffffffffffffffffffffff1602179055506040820151816002015560608201518160030160006101000a81548160ff02191690831515021790555060808201518160030160016101000a81548173ffffffffffffffffffffffffffffffffffffffff021916908373ffffffffffffffffffffffffffffffffffffffff1602179055509050507f7dfb67e9ff596fca4da65c7eedb128cd1aac553af54b3c0cb733625a2480d8bd6001543334604051610a7a939291906111a6565b60405180910390a1565b60008054906101000a900473ffffffffffffffffffffffffffffffffffffffff1681565b600154811115610aed576040517f08c379a0000000000000000000000000000000000000000000000000000000008152600401610ae4906113db565b60405180910390fd5b600073ffffffffffffffffffffffffffffffffffffffff166002600083815260200190815260200160002060010160009054906101000a900473ffffffffffffffffffffffffffffffffffffffff1673ffffffffffffffffffffffffffffffffffffffff1614610b92576040517f08c379a0000000000000000000000000000000000000000000000000000000008152600401610b8990611447565b60405180910390fd5b6002600082815260200190815260200160002060000160009054906101000a900473ffffffffffffffffffffffffffffffffffffffff1673ffffffffffffffffffffffffffffffffffffffff163373ffffffffffffffffffffffffffffffffffffffff1603610c36576040517f08c379a0000000000000000000000000000000000000000000000000000000008152600401610c2d906114b3565b60405180910390fd5b60026000828152602001908152602001600020600201543414610c8e576040517f08c379a0000000000000000000000000000000000000000000000000000000008152600401610c859061151f565b60405180910390fd5b336002600083815260200190815260200160002060010160006101000a81548173ffffffffffffffffffffffffffffffffffffffff021916908373ffffffffffffffffffffffffffffffffffffffff1602179055507f45c4f9cbafe186141862608c493f28b823fde4c2142bedc3f5169961a73fdd228133604051610d1492919061153f565b60405180910390a150565b600080fd5b6000819050919050565b610d3781610d24565b8114610d4257600080fd5b50565b600081359050610d5481610d2e565b92915050565b600060208284031215610d7057610d6f610d1f565b5b6000610d7e84828501610d45565b91505092915050565b600073ffffffffffffffffffffffffffffffffffffffff82169050919050565b6000610db282610d87565b9050919050565b610dc281610da7565b82525050565b610dd181610d24565b82525050565b60008115159050919050565b610dec81610dd7565b82525050565b6000610dfd82610d87565b9050919050565b610e0d81610df2565b82525050565b600060a082019050610e286000830188610db9565b610e356020830187610db9565b610e426040830186610dc8565b610e4f6060830185610de3565b610e5c6080830184610e04565b9695505050505050565b6000602082019050610e7b6000830184610dc8565b92915050565b6000602082019050610e966000830184610e04565b92915050565b600082825260208201905092915050565b7f496e76616c69642067616d650000000000000000000000000000000000000000600082015250565b6000610ee3600c83610e9c565b9150610eee82610ead565b602082019050919050565b60006020820190508181036000830152610f1281610ed6565b9050919050565b7f47616d6520616c726561647920636f6d706c6574656400000000000000000000600082015250565b6000610f4f601683610e9c565b9150610f5a82610f19565b602082019050919050565b60006020820190508181036000830152610f7e81610f42565b9050919050565b7f596f7520617265206e6f74206120706c6179657220696e20746869732067616d60008201527f6500000000000000000000000000000000000000000000000000000000000000602082015250565b6000610fe1602183610e9c565b9150610fec82610f85565b604082019050919050565b6000602082019050818103600083015261101081610fd4565b9050919050565b7f4e487b7100000000000000000000000000000000000000000000000000000000600052601160045260246000fd5b600061105182610d24565b915061105c83610d24565b925082820261106a81610d24565b9150828204841483151761108157611080611017565b5b5092915050565b7f4e6f7420656e6f7567682045544820696e20636f6e7472616374000000000000600082015250565b60006110be601a83610e9c565b91506110c982611088565b602082019050919050565b600060208201905081810360008301526110ed816110b1565b9050919050565b600081905092915050565b50565b600061110f6000836110f4565b915061111a826110ff565b600082019050919050565b600061113082611102565b9150819050919050565b7f455448205472616e73666572206661696c656400000000000000000000000000600082015250565b6000611170601383610e9c565b915061117b8261113a565b602082019050919050565b6000602082019050818103600083015261119f81611163565b9050919050565b60006060820190506111bb6000830186610dc8565b6111c86020830185610e04565b6111d56040830184610dc8565b949350505050565b7f47616d65206d75737420626520636f6d706c65746564206265666f726520726560008201527f73657474696e6700000000000000000000000000000000000000000000000000602082015250565b6000611239602783610e9c565b9150611244826111dd565b604082019050919050565b600060208201905081810360008301526112688161122c565b9050919050565b7f4f6e6c7920706c61796572732063616e207265736574207468652067616d6500600082015250565b60006112a5601f83610e9c565b91506112b08261126f565b602082019050919050565b600060208201905081810360008301526112d481611298565b9050919050565b60006112e682610d24565b91507fffffffffffffffffffffffffffffffffffffffffffffffffffffffffffffffff820361131857611317611017565b5b600182019050919050565b7f5374616b65206d7573742062652067726561746572207468616e207a65726f00600082015250565b6000611359601f83610e9c565b915061136482611323565b602082019050919050565b600060208201905081810360008301526113888161134c565b9050919050565b7f496e76616c69642067616d652049440000000000000000000000000000000000600082015250565b60006113c5600f83610e9c565b91506113d08261138f565b602082019050919050565b600060208201905081810360008301526113f4816113b8565b9050919050565b7f47616d6520616c72656164792066756c6c000000000000000000000000000000600082015250565b6000611431601183610e9c565b915061143c826113fb565b602082019050919050565b6000602082019050818103600083015261146081611424565b9050919050565b7f596f752063616e6e6f74206a6f696e20796f7572206f776e2067616d65210000600082015250565b600061149d601e83610e9c565b91506114a882611467565b602082019050919050565b600060208201905081810360008301526114cc81611490565b9050919050565b7f5374616b6520616d6f756e74206d757374206d6174636820506c617965722031600082015250565b6000611509602083610e9c565b9150611514826114d3565b602082019050919050565b60006020820190508181036000830152611538816114fc565b9050919050565b60006040820190506115546000830185610dc8565b6115616020830184610e04565b939250505056fea2646970667358221220ac5234bf3bb6f097d97b548deafbdf0358f96b2a5406335e538ffcab3026cffa64736f6c63430008130033",
  "linkReferences": {},
  "deployedLinkReferences": {}
}